{
  "contractName": "RollDice",
  "abi": [
    {
      "inputs": [],
      "payable": false,
      "stateMutability": "nonpayable",
      "type": "constructor"
    },
    {
      "anonymous": false,
      "inputs": [
        {
          "indexed": true,
          "internalType": "address",
          "name": "beneficiary",
          "type": "address"
        },
        {
          "indexed": false,
          "internalType": "uint256",
          "name": "amount",
          "type": "uint256"
        }
      ],
      "name": "FailedPayment",
      "type": "event"
    },
    {
      "anonymous": false,
      "inputs": [
        {
          "indexed": true,
          "internalType": "address",
          "name": "beneficiary",
          "type": "address"
        },
        {
          "indexed": false,
          "internalType": "uint256",
          "name": "amount",
          "type": "uint256"
        }
      ],
      "name": "Payment",
      "type": "event"
    },
    {
      "anonymous": false,
      "inputs": [
        {
          "indexed": true,
          "internalType": "address",
          "name": "gambler",
          "type": "address"
        },
        {
          "indexed": false,
          "internalType": "uint256",
          "name": "diceNum",
          "type": "uint256"
        },
        {
          "indexed": false,
          "internalType": "uint256",
          "name": "amount",
          "type": "uint256"
        }
      ],
      "name": "Reveal",
      "type": "event"
    },
    {
      "constant": true,
      "inputs": [],
      "name": "lockedInBets",
      "outputs": [
        {
          "internalType": "uint256",
          "name": "",
          "type": "uint256"
        }
      ],
      "payable": false,
      "stateMutability": "view",
      "type": "function"
    },
    {
      "constant": true,
      "inputs": [],
      "name": "owner",
      "outputs": [
        {
          "internalType": "address payable",
          "name": "",
          "type": "address"
        }
      ],
      "payable": false,
      "stateMutability": "view",
      "type": "function"
    },
    {
      "constant": false,
      "inputs": [
        {
          "internalType": "address payable",
          "name": "beneficiary",
          "type": "address"
        },
        {
          "internalType": "uint256",
          "name": "withdrawAmount",
          "type": "uint256"
        }
      ],
      "name": "withdrawFunds",
      "outputs": [],
      "payable": false,
      "stateMutability": "nonpayable",
      "type": "function"
    },
    {
      "constant": false,
      "inputs": [],
      "name": "kill",
      "outputs": [],
      "payable": false,
      "stateMutability": "nonpayable",
      "type": "function"
    },
    {
      "constant": false,
      "inputs": [],
      "name": "revealResult",
      "outputs": [],
      "payable": true,
      "stateMutability": "payable",
      "type": "function"
    },
    {
      "constant": false,
      "inputs": [],
      "name": "refundBet",
      "outputs": [],
      "payable": false,
      "stateMutability": "nonpayable",
      "type": "function"
    },
    {
      "constant": true,
      "inputs": [],
      "name": "checkHouseFund",
      "outputs": [
        {
          "internalType": "uint256",
          "name": "",
          "type": "uint256"
        }
      ],
      "payable": false,
      "stateMutability": "view",
      "type": "function"
    }
  ],
  "bytecode": "0x608060405234801561001057600080fd5b50336000806101000a81548173ffffffffffffffffffffffffffffffffffffffff021916908373ffffffffffffffffffffffffffffffffffffffff160217905550610bdc806100606000396000f3fe6080604052600436106100705760003560e01c80635dbc19f41161004e5780635dbc19f4146100ce5780638da5cb5b146100d8578063c10753291461012f578063df88126f1461018a57610070565b806311ea8acb14610075578063172f82761461008c57806341c0e1b5146100b7575b600080fd5b34801561008157600080fd5b5061008a6101b5565b005b34801561009857600080fd5b506100a16102b5565b6040518082815260200191505060405180910390f35b3480156100c357600080fd5b506100cc610362565b005b6100d661049c565b005b3480156100e457600080fd5b506100ed6106bd565b604051808273ffffffffffffffffffffffffffffffffffffffff1673ffffffffffffffffffffffffffffffffffffffff16815260200191505060405180910390f35b34801561013b57600080fd5b506101886004803603604081101561015257600080fd5b81019080803573ffffffffffffffffffffffffffffffffffffffff169060200190929190803590602001909291905050506106e2565b005b34801561019657600080fd5b5061019f61080f565b6040518082815260200191505060405180910390f35b6000600260003373ffffffffffffffffffffffffffffffffffffffff1673ffffffffffffffffffffffffffffffffffffffff168152602001908152602001600020905060008160000154905060008260010160009054906101000a900473ffffffffffffffffffffffffffffffffffffffff16905060008211610283576040517f08c379a0000000000000000000000000000000000000000000000000000000008152600401808060200182810382526023815260200180610b856023913960400191505060405180910390fd5b600083600201549050806001600082825403925050819055506102a533610815565b6102af82846108b4565b50505050565b60008060009054906101000a900473ffffffffffffffffffffffffffffffffffffffff1673ffffffffffffffffffffffffffffffffffffffff163373ffffffffffffffffffffffffffffffffffffffff161461035c576040517f08c379a0000000000000000000000000000000000000000000000000000000008152600401808060200182810382526022815260200180610b316022913960400191505060405180910390fd5b47905090565b6000809054906101000a900473ffffffffffffffffffffffffffffffffffffffff1673ffffffffffffffffffffffffffffffffffffffff163373ffffffffffffffffffffffffffffffffffffffff1614610407576040517f08c379a0000000000000000000000000000000000000000000000000000000008152600401808060200182810382526022815260200180610b316022913960400191505060405180910390fd5b600060015414610462576040517f08c379a0000000000000000000000000000000000000000000000000000000008152600401808060200182810382526032815260200180610b536032913960400191505060405180910390fd5b6000809054906101000a900473ffffffffffffffffffffffffffffffffffffffff1673ffffffffffffffffffffffffffffffffffffffff16ff5b6000349050662386f26fc1000081101580156104c05750678ac7230489e800008111155b610532576040517f08c379a00000000000000000000000000000000000000000000000000000000081526004018080602001828103825260178152602001807f416d6f756e74206973206f7574206f662072616e67652e00000000000000000081525060200191505060405180910390fd5b6000600260003373ffffffffffffffffffffffffffffffffffffffff1673ffffffffffffffffffffffffffffffffffffffff168152602001908152602001600020905060008160010160009054906101000a900473ffffffffffffffffffffffffffffffffffffffff169050600083116105f7576040517f08c379a0000000000000000000000000000000000000000000000000000000008152600401808060200182810382526023815260200180610b856023913960400191505060405180910390fd5b60008061060385610994565b915091508360010160009054906101000a900473ffffffffffffffffffffffffffffffffffffffff1673ffffffffffffffffffffffffffffffffffffffff167fbd515cb7fe6810ea1d996c4efb3231c8b281498ca8062a4ec905d41943824bdf85600301548660020154604051808381526020018281526020019250505060405180910390a2600082111561069d5761069c83836108b4565b5b816001600082825403925050819055506106b633610815565b5050505050565b6000809054906101000a900473ffffffffffffffffffffffffffffffffffffffff1681565b6000809054906101000a900473ffffffffffffffffffffffffffffffffffffffff1673ffffffffffffffffffffffffffffffffffffffff163373ffffffffffffffffffffffffffffffffffffffff1614610787576040517f08c379a0000000000000000000000000000000000000000000000000000000008152600401808060200182810382526022815260200180610b316022913960400191505060405180910390fd5b4760015482011115610801576040517f08c379a00000000000000000000000000000000000000000000000000000000081526004018080602001828103825260138152602001807f6c6172676572207468616e2062616c616e63650000000000000000000000000081525060200191505060405180910390fd5b61080b82826108b4565b5050565b60015481565b6000600260008373ffffffffffffffffffffffffffffffffffffffff1673ffffffffffffffffffffffffffffffffffffffff1681526020019081526020016000209050600081600001819055506000816002018190555060008160010160006101000a81548173ffffffffffffffffffffffffffffffffffffffff021916908373ffffffffffffffffffffffffffffffffffffffff1602179055505050565b8173ffffffffffffffffffffffffffffffffffffffff166108fc829081150290604051600060405180830381858888f1935050505015610941578173ffffffffffffffffffffffffffffffffffffffff167fd4f43975feb89f48dd30cabbb32011045be187d1e11c8ea9faa43efc35282519826040518082815260200191505060405180910390a2610990565b8173ffffffffffffffffffffffffffffffffffffffff167fac464fe4d3a86b9121261ac0a01dd981bfe0777c7c9d9c8f4473d31a9c0f9d2d826040518082815260200191505060405180910390a25b5050565b6000806000600260003373ffffffffffffffffffffffffffffffffffffffff1673ffffffffffffffffffffffffffffffffffffffff1681526020019081526020016000209050338160010160006101000a81548173ffffffffffffffffffffffffffffffffffffffff021916908373ffffffffffffffffffffffffffffffffffffffff160217905550600060646005860281610a2c57fe5b04905060006611c37937e08000821015610a4b576611c37937e0800091505b600042604051602001808281526020019150506040516020818303038152906040528051906020012060001c9050600060068281610a8557fe5b0690506000811415610a9657600092505b6001811415610aad5760028881610aa957fe5b0492505b6002811480610abc5750600381145b15610ac5578792505b6004811415610adf5760026003890281610adb57fe5b0492505b6005811415610aef576002880292505b6000848411610afe5783610b02565b8484035b905060006001830190508087600301819055508187600201819055508181985098505050505050505091509156fe4f6e6c79206f776e65722063616e2063616c6c20746869732066756e6374696f6e2e416c6c20626574732073686f756c642062652070726f636573736564206265666f72652073656c662d64657374727563742e4265742073686f756c6420626520696e20616e2027616374697665272073746174652ea265627a7a72315820d0aef3d6b490d20b10d8ca88f1f24fe569f678d22e22700eb453ad6e847c3c4d64736f6c63430005100032",
  "source": "pragma solidity >=0.4.21 <0.7.0;\n\ncontract RollDice {\n    uint256 constant MAX_CASE = 6; //for dice\n    uint256 constant MIN_BET = 0.01 ether;\n    uint256 constant MAX_BET = 10 ether;\n    uint256 constant HOUSE_FEE_PERCENT = 5;\n    uint256 constant HOUSE_MIN_FEE = 0.005 ether;\n\n    address payable public owner; //=> account address data type\n    uint256 public lockedInBets;\n\n    struct Bet {\n        uint256 amount;\n        address payable gambler;\n        uint256 winningAmount;\n        uint256 diceNum;\n    }\n\n    mapping(address => Bet) bets;\n\n    event Reveal(address indexed gambler, uint256 diceNum, uint256 amount);\n    event Payment(address indexed beneficiary, uint256 amount);\n    event FailedPayment(address indexed beneficiary, uint256 amount);\n\n    constructor() public {\n        owner = msg.sender;\n    }\n\n    modifier onlyOwner {\n        require(msg.sender == owner, \"Only owner can call this function.\");\n        _;\n    }\n\n    function withdrawFunds(address payable beneficiary, uint256 withdrawAmount)\n        external\n        onlyOwner\n    {\n        require(\n            withdrawAmount + lockedInBets <= address(this).balance,\n            \"larger than balance\"\n        );\n        sendFunds(beneficiary, withdrawAmount);\n    }\n\n    function sendFunds(address payable beneficiary, uint256 amount) private {\n        if (beneficiary.send(amount)) {\n            emit Payment(beneficiary, amount);\n        } else {\n            emit FailedPayment(beneficiary, amount);\n        }\n    }\n\n    function kill() external onlyOwner {\n        require(\n            lockedInBets == 0,\n            \"All bets should be processed before self-destruct.\"\n        );\n        selfdestruct(owner);\n    }\n\n    // receive() external payable {} //function for receiving contract's initial operating funds.\n\n    // function placeBet() external payable {\n    //     uint256 amount = msg.value;\n\n    //     require(\n    //         amount >= MIN_BET && amount <= MAX_BET,\n    //         \"Amount is out of range.\"\n    //     );\n\n    //     Bet storage bet = bets[msg.sender]; //mapping bets(address=>bets)\n\n    //     require(bet.gambler == address(0), \"Bet should be empty state.\");\n    //     //address(0) = null in address type.\n\n    //     uint256 possibleWinningAmount = 2 * amount;\n    //     lockedInBets += possibleWinningAmount;\n\n    //     require(\n    //         lockedInBets < address(this).balance,\n    //         \"Cannot afford to pay the bet.\"\n    //     );\n\n    //     bet.amount = amount;\n    //     bet.placeBlockNumber = block.number;\n    //     bet.gambler = msg.sender;\n    // }\n\n    function getWinningAmount(uint256 amount)\n        private\n        returns (uint256, uint256)\n    {\n        Bet storage bet = bets[msg.sender];\n        bet.gambler = msg.sender;\n\n        uint256 housefee = (amount * HOUSE_FEE_PERCENT) / 100;\n        uint256 reward;\n\n        if (housefee < HOUSE_MIN_FEE) {\n            housefee = HOUSE_MIN_FEE;\n        }\n\n        uint256 random = uint256(keccak256(\n            abi.encodePacked(\n                block.timestamp\n            )\n        ));\n\n        uint256 tt = random % 6;\n        \n        if (tt == 0) {\n            reward = 0;\n        }\n\n        if (tt == 1) {\n            reward = amount / 2;\n        }\n\n        if (tt == 2 || tt == 3) {\n            reward = amount;\n        }\n\n        if (tt == 4) {\n            reward = (amount * 3) / 2;\n        }\n\n        if (tt == 5) {\n            reward = amount * 2;\n        }\n\n        uint256 winningAmount = (reward > housefee) ? reward - housefee : reward;\n        uint256 diceNum = tt + 1;\n        bet.diceNum = diceNum;\n        bet.winningAmount = winningAmount;\n        return (winningAmount, diceNum);\n    }\n\n    function revealResult() external payable {\n        uint256 amount = msg.value;\n        require(\n            amount >= MIN_BET && amount <= MAX_BET,\n            \"Amount is out of range.\"\n        );\n        Bet storage bet = bets[msg.sender];\n        // bet.gambler = msg.sender;\n        address payable gambler = bet.gambler;\n\n        require(amount > 0, \"Bet should be in an 'active' state.\");\n\n        (uint256 winningAmount, uint256 diceNum) = getWinningAmount(amount);\n\n        emit Reveal(bet.gambler, bet.diceNum, bet.winningAmount);\n        if (winningAmount > 0) {\n            sendFunds(gambler, winningAmount);\n        }\n        lockedInBets -= winningAmount;\n        clearBet(msg.sender);\n    }\n\n    function clearBet(address player) private {\n        Bet storage bet = bets[player];\n\n        bet.amount = 0;\n        bet.winningAmount = 0;\n        bet.gambler = address(0);\n    }\n\n    function refundBet() external {\n        Bet storage bet = bets[msg.sender];\n        uint256 amount = bet.amount;\n        address payable gambler = bet.gambler;\n        require(amount > 0, \"Bet should be in an 'active' state.\");\n        uint256 possibleWinningAmount;\n        possibleWinningAmount = bet.winningAmount;\n\n        lockedInBets -= possibleWinningAmount;\n        clearBet(msg.sender);\n        sendFunds(gambler, amount);\n    }\n\n    function checkHouseFund() public view onlyOwner returns (uint256) {\n        return address(this).balance;\n    }\n}",
  "sourcePath": "/Users/seohoyoon/Desktop/01 Personal/programming/blchn-team3-dice/contracts/RollDice.sol",
  "compiler": {
    "name": "solc",
    "version": "0.5.16+commit.9c3226ce.Emscripten.clang"
  },
  "schemaVersion": "3.3.2",
  "updatedAt": "2020-11-29T12:52:31.425Z",
  "networkType": "ethereum",
  "devdoc": {
    "methods": {}
  },
  "userdoc": {
    "methods": {}
  }
}